:100000000EC028C027C026C025C024C023C022C0DF
:1000100021C020C07DC01EC01DC01CC01BC011243B
:100020001FBECFE5D2E0DEBFCDBF10E0A0E6B0E05E
:10003000ECE9F2E002C005900D92A23EB107D9F7BB
:1000400020E0A2EEB0E001C01D92A43EB207E1F7AD
:100050008ED022C1D5CF87B1826287B9379A86B157
:10006000836086B9089539983898369A87EC90E07D
:100070000197F1F700C0000085B108953998389ACA
:10008000369A87EC90E00197F1F700C0000085B147
:100090000895399A3898369A87EC90E00197F1F7ED
:1000A00000C0000085B10895399A389A369A87ECD5
:1000B00090E00197F1F700C0000085B10895F89431
:1000C0001EBC80B78E7F80BFC1980895B99A80B753
:1000D000816080BF78940895F2DF80B7806480BF2C
:1000E00080B7806280BF80B7816080BFB99A8AB5CF
:1000F0008B608ABD83B7816083BF89B7806189BF08
:100100008FE189BDE3CF90936100809360000895F3
:100110001F920F920FB60F9211242F933F938F933C
:100120009F93EF93FF932091600030916100809145
:10013000E2009091E300820F931F9093E30080937D
:10014000E2008091E2009091E300E92FE695F0E073
:10015000EE59FF4F80818EBDFF91EF919F918F915E
:100160003F912F910F900FBE0F901F901895CF9336
:10017000DF93CDB7DEB7E0970FB6F894DEBF0FBEC2
:10018000CDBFFE01BB9686E0DF011D928A95E9F79F
:1001900088EB91E09A8389838AE292E09C838B8347
:1001A00044E952E05E834D832EEE31E038872F83A1
:1001B0006BE472E07A87698724EE32E03C872B8714
:1001C0009E878D87588B4F878FE393E09A8B898B1F
:1001D0007C8B6B8B3E8B2D8B60E773E0788F6F8B06
:1001E0005A8F498F9C8F8B8F4CED53E05E8F4D8FD4
:1001F00038A32F8F7AA369A324E534E03CA32BA373
:100200009EA38DA358A74FA386E994E09AA789A738
:10021000C49AC39AC29A60DF01E0B49B16C020E082
:10022000B39B15C090E086B382FB112710F910270D
:10023000122B192B71F443DF90E080E024E0880F4B
:10024000991F2A95E1F75FDFE8CF24E0E9CF92E03C
:10025000EACF3CDFE12FE150FF0BCF0166E070E019
:100260000AD021E030E02C0F3D1F820F931FDC01EC
:100270008D919C91E3CF0024552704C0080E591F8F
:10028000880F991F009729F076956795B8F3710547
:0C029000B9F7802D952F0895F894FFCF4A
:10029C00B80180868C92989EA5AAB0B6BCC1C6CB7C
:1002AC00D0D5DADEE2E6EAEDF0F3F5F8FAFBFDFE86
:1002BC00FEFFFFFFFEFEFDFBFAF8F5F3F0EDEAE6BC
:1002CC00E2DEDAD5D0CBC6C1BCB6B0AAA59E989258
:1002DC008C868079736D67615A554F49433E39342A
:1002EC002F2A25211D1915120F0C0A0705040201CE
:1002FC00010000000101020405070A0C0F12151978
:10030C001D21252A2F34393E43494F555A61676DBB
:02031C007379F3
:00000001FF
