:100000000EC028C027C026C025C024C023C022C0DF
:1000100021C020C08AC01EC01DC01CC01BC011242E
:100020001FBECFE5D2E0DEBFCDBF10E0A0E6B0E05E
:10003000E2EFF3E002C005900D92A03EB107D9F7C0
:1000400020E0A0EEB0E001C01D92A23FB207E1F7B0
:10005000BCD0CDC1D5CF87B1826287B9379A86B17E
:10006000836086B9089539983898369A8FE891E078
:100070000197F1F700C0000085B108953998389ACA
:10008000369A8FE891E00197F1F700C0000085B142
:100090000895399A3898369A8FE891E00197F1F7E8
:1000A00000C0000085B10895399A389A369A8FE8D1
:1000B00091E00197F1F700C0000085B10895F89430
:1000C0001EBC80B78E7F80BFC1980895B99A80B753
:1000D000816080BF78940895F2DF19BE86E087BD05
:1000E00080B7806480BF80B7806280BF80B7816046
:1000F00080BFB99A8AB58B608ABD83B7816083BFA0
:1001000089B7806189BF8CE389BDE0CF833060F41B
:10011000E82FF0E0EE0FFF1FEE0FFF1FE052FF4F42
:10012000408351836283738308951F920F920FB6A9
:100130000F921124CF92DF92EF92FF922F933F9371
:100140004F935F938F939F93EF93FF9330E020E063
:1001500090E080E0F901EE0FFF1FEE0FFF1FE0526D
:10016000FF4FC080D180E280F380F901EE0FFF1FC6
:10017000E451FF4F408151814C0D5D1D51834083FF
:1001800040815181E52FE695F0E0E05AFF4F408134
:10019000840F911D2F5F3F4F23303105D9F696957F
:1001A0008795969587958EBDFF91EF919F918F9141
:1001B0005F914F913F912F91FF90EF90DF90CF9003
:1001C0000F900FBE0F901F901895CF93DF93CDB770
:1001D000DEB7E3970FB6F894DEBF0FBECDBFFE01CA
:1001E000BB9686E0DF011D928A95E9F788EB91E0E6
:1001F0009A8389838AE292E09C838B8344E952E06C
:100200005E834D832EEE31E038872F836BE472E0FE
:100210007A87698724EE32E03C872B879E878D871B
:10022000588B4F878FE393E09A8B898B7C8B6B8BFA
:100230003E8B2D8B60E773E0788F6F8B5A8F498FE1
:100240009C8F8B8F4CED53E05E8F4D8F38A32F8F9B
:100250007AA369A324E534E03CA32BA39EA38DA33A
:1002600058A74FA386E994E09AA789A7C39AC29A90
:10027000C09A32DFF0DE0FE71BAAF12C1AAA19AAE6
:1002800008DF682E712CB39B54C090E0B29B53C022
:1002900080E016B310951170192B182BB9EC6B1662
:1002A000710408F463C0111163C009DF89A99AA918
:1002B00066E070E064D0E1E0F0E0EC0FFD1FE80FD5
:1002C000F91F2080318053E0220C331C5A95E1F74E
:1002D000512C412CC480D580CC0CDD1CCC0CDD1CF9
:1002E000F12CE12C82809380880C991C880C991C3D
:1002F000B12CA12C802F9BA96EE070E051D0FB01A6
:1003000030E020E02E173F07C1F4B201A10180E0E8
:10031000FDDEB501A40181E0F9DEB701A60182E0AE
:10032000F5DE98EC6916710410F4062D7BAAF12E07
:10033000A7CF94E0ABCF82E0ACCFC90163E070E01F
:1003400043D0009739F456944794379427942F5FFD
:100350003F4FD8CF019729F4F694E794D794C794E8
:10036000F6CFB694A79497948794F1CFF11628F41A
:10037000812F8150990B9AAB89ABA8DE97CF0024CF
:10038000552704C0080E591F880F991F009729F0A0
:1003900076956795B8F37105B9F7802D952F089577
:1003A000AA1BBB1B51E107C0AA1FBB1FA617B7079B
:1003B00010F0A61BB70B881F991F5A95A9F78095B7
:1003C0009095BC01CD01089597FB072E16F400947B
:1003D00006D077FD08D0E4DF07FC05D03EF4909509
:1003E00081959F4F0895709561957F4F0895F8947A
:0203F000FFCF3D
:1003F20080868C92989EA5AAB0B6BCC1C6CBD0D539
:10040200DADEE2E6EAEDF0F3F5F8FAFBFDFEFEFFD6
:10041200FFFFFEFEFDFBFAF8F5F3F0EDEAE6E2DEA1
:10042200DAD5D0CBC6C1BCB6B0AAA59E98928C86AE
:100432008079736D67615A554F49433E39342F2A8B
:1004420025211D1915120F0C0A07050402010100CE
:1004520000000101020405070A0C0F1215191D21E3
:10046200252A2F34393E43494F555A61676D7379B6
:00000001FF
