:1000000025C03FC03EC03DC03CC03BC03AC039C027
:1000100038C037C01CC135C034C033C032C0084AF4
:10002000D73B3BCE016E84BCBFFDC12F3D6C74310C
:100030009ABD56833DDA3D00C77F11BED9E4BB4C63
:100040003E916BAAAABE000000803F0011241FBE93
:10005000CFE5D2E0DEBFCDBF10E0A0E6B0E0E0E942
:10006000FBE002C005900D92A23EB107D9F720E057
:10007000A2EEB0E001C01D92A43EB207E1F722D18A
:1000800085C5BECF82E287B983E886B9089587B176
:1000900060E025D087B986B166E019D086B98FE8CF
:1000A00091E00197F1F700C0000085B1089587B194
:1000B00060E00DD087B986B166E009D086B98FE8D7
:1000C00091E00197F1F700C0000085B1089521E0AB
:1000D00030E001C0220F6A95EAF7822B089521E0F3
:1000E00030E001C0220F6A95EAF720958223089537
:1000F00021E030E001C0220F6A95EAF7442311F0B5
:10010000822B089520958223089521E030E002C0DB
:10011000220F331F6A95E2F790E02823392381E00C
:10012000121613060CF080E008958F929F92AF9202
:10013000BF92CF92DF92EF92FF920F931F93CF93D4
:10014000DF938C0197FF03C0119501951109EB0115
:1001500077FF03C0D195C195D109BE010D2E000CCA
:10016000880B990BD5D24B015C01B801012E000C14
:10017000880B990BCDD26B017C012CEC33E144ED63
:100180005EE30C171D079CF43AD4A50194015DD1E0
:100190008CD2CB01DF91CF911F910F91FF90EF9007
:1001A000DF90CF90BF90AF909F908F900895C50142
:1001B000B40125D4A7019601EACF0F931F93DB0169
:1001C000FA01B801621B730B8A1B9B0B05D1BF019F
:1001D0006A1B7B0B12D1CB01820F931F1F910F91D2
:1001E000089580B766E073DF80BF80B765E06FDF9A
:1001F00080BF80B760E06BDF80BF87B361E067DFFF
:1002000087BB08958EBD0895F89480E0FBCFFCDF96
:100210008AB560E05CDF8ABD8AB561E058DF8ABDDF
:1002200083B763E054DF83BF83B760E050DF83BFF1
:1002300089B764E04CDF89BF89E789BD7894089568
:1002400078940895909361008093600008951F92C0
:100250000F920FB60F9211242F933F934F935F93FA
:100260006F937F938F939F93AF93BF93EF93FF937E
:1002700020916000309161008091E2009091E30054
:10028000820F931F9093E3008093E2008091E2003D
:100290009091E300E92FE695F0E0EE59FF4F808161
:1002A000B1DFFF91EF91BF91AF919F918F917F91BE
:1002B0006F915F914F913F912F910F900FBE0F90D3
:1002C0001F90189587B360E00ADF87BB88B360E0B2
:1002D000FEDE88BB86DF9BDFD5DED9DE082F10E08F
:1002E000E6DEC82FD0E0B80162587109072E000C75
:1002F000880B990B0DD24B015C01BE016D57710942
:10030000072E000C880B990B03D22B013C01A50191
:1003100094010ED16B017C019F772DE139EC45EE04
:100320005EE359D1C8EBD1E087FD20C020E030E08A
:10033000A901C701B601C1D218165CF52AEB39E450
:100340004CEA5FE3C701B60146D1CEEED1E087FDAE
:100350000DC022EB3DE94FE050E4C701B6013BD1AF
:10036000CBE4D2E087FF02C0CAE2D2E0A50194014B
:10037000C301B201AFD299D18B016730710544F14D
:100380005FDF05331105F4F4D595C795CE015ADF2B
:10039000A4CF2AEB39E44CEA5FEBC701B6018DD25A
:1003A000CFE3D3E0181614F322EB3DE94FE050EC15
:1003B000C701B60182D2C4E9D2E01816BCF6C4EE79
:1003C000D2E0D4CF0C3711050CF3CC0FDD1FDECFFC
:1003D0001BDFD0E0C0E0DACF0024552704C0080EB0
:1003E000591F880F991F009729F076956795B8F3E4
:1003F0007105B9F7802D952F089597FB072E16F4F8
:10040000009406D077FD08D00BD007FC05D03EF451
:10041000909581959F4F0895709561957F4F0895B0
:10042000AA1BBB1B51E107C0AA1FBB1FA617B7071A
:1004300010F0A61BB70B881F991F5A95A9F7809536
:100440009095BC01CD0108955058BB27AA270ED026
:10045000FAC1EBD130F0F0D120F031F49F3F11F42C
:100460001EF4BBC10EF4E095E7FBB1C1E92FFCD14E
:1004700080F3BA17620773078407950718F071F4C1
:100480009EF514C20EF4E0950B2EBA2FA02D0B0191
:10049000B90190010C01CA01A0011124FF27591BC9
:1004A00099F0593F50F4503E68F11A16F040A22FCF
:1004B000232F342F4427585FF3CF46953795279540
:1004C000A795F0405395C9F77EF41F16BA0B620B3F
:1004D000730B840BBAF09150A1F0FF0FBB1F661F86
:1004E000771F881FC2F70EC0BA0F621F731F841FC9
:1004F00048F4879577956795B795F7959E3F08F0EF
:10050000B3CF9395880F08F09927EE0F97958795AD
:1005100008958BD158F080E891E009F49EEF8CD1DA
:1005200028F040E851E059F45EEF09C056C1BEC161
:10053000E92FE07899D168F3092E052AC1F326172F
:1005400037074807590738F00E2E07F8E02569F0FD
:10055000E025E0640AC0EF6307F8009407FADB01C6
:10056000B9019D01DC01CA01AD01EF9345D06BD10A
:100570000AD05F91552331F02BED3FE049E450FD67
:1005800049EC63CF0895DF93DD27B92FBF7740E8AB
:100590005FE31616170648075B0710F4D92FF2D150
:1005A0009F938F937F936F93D7D2EEE1F0E018D1B2
:1005B0004AD12F913F914F915F912CD2DD2349F089
:1005C0009058A2EA2AED3FE049EC5FE3D0785D273E
:1005D0004DDFDF9138C1D7D008F481E008952CD1E8
:1005E00040F023D130F021F45F3F19F0F0C05111F9
:1005F0005EC1F3C039D198F39923C9F35523B1F300
:10060000951B550BBB27AA2762177307840738F081
:100610009F5F5F4F220F331F441FAA1FA9F333D0E0
:100620000E2E3AF0E0E830D091505040E695001C94
:10063000CAF729D0FE2F27D0660F771F881FBB1F50
:10064000261737074807AB07B0E809F0BB0B802D2A
:10065000BF01FF2793585F4F2AF09E3F510568F076
:10066000B6C025C15F3FECF3983EDCF386957795E5
:100670006795B795F7959F5FC9F7880F911D969578
:10068000879597F90895E1E0660F771F881FBB1FD4
:10069000621773078407BA0720F0621B730B840B81
:1006A000BA0BEE1F88F7E095089504D06894B11155
:1006B000FEC00895E1D088F09F5790F0B92F992798
:1006C000B751A0F0D1F0660F771F881F991F1AF05D
:1006D000BA95C9F712C0B13081F0E8D0B1E0089501
:1006E000E5C0672F782F8827B85F39F0B93FCCF382
:1006F000869577956795B395D9F73EF49095809553
:10070000709561957F4F8F4F9F4F0895E89409C072
:1007100097FB3EF490958095709561957F4F8F4F34
:100720009F4F9923A9F0F92F96E9BB279395F6954A
:10073000879577956795B795F111F8CFFAF4BB0FC8
:1007400011F460FF1BC06F5F7F4F8F4F9F4F16C02C
:10075000882311F096E911C0772321F09EE8872FB6
:10076000762F05C0662371F096E8862F70E060E072
:100770002AF09A95660F771F881FDAF7880F9695EB
:10078000879597F90895990F0008550FAA0BE0E88F
:10079000FEEF16161706E807F907C0F01216130643
:1007A000E407F50798F0621B730B840B950B39F483
:1007B0000A2661F0232B242B252B21F408950A26E9
:1007C00009F4A140A6958FEF811D811D089597F929
:1007D0009F6780E870E060E008959FEF80EC0895E7
:1007E000DF93CF931F930F93FF92EF92DF927B01E2
:1007F0008C01689405C0DA2EEF010CD1FE01E8945B
:10080000A5912591359145915591AEF3EF012EDEDD
:10081000FE019701A801DA9479F7DF90EF90FF903D
:100820000F911F91CF91DF91089500240A9416161D
:10083000170618060906089500240A9412161306CE
:10084000140605060895092E0394000C11F488235C
:1008500052F0BB0F40F4BF2B11F460FF04C06F5F78
:100860007F4F8F4F9F4F089557FD9058440F551F4E
:1008700059F05F3F71F04795880F97FB991F61F022
:100880009F3F79F087950895121613061406551F99
:10089000F2CF4695F1DF08C0161617061806991F05
:1008A000F1CF86957105610508940895E894BB27FA
:1008B00066277727CB0197F9089565DF08F48FEF56
:1008C0000895B3DF19F0B8DF09F087CF80CFB90101
:1008D000CA0147C19F775F77C7DF98F39923B9F3C0
:1008E0005523B9F3FF27951758F4E52FE91BED3091
:1008F00070F75E3B10F0F1E41CC09034E0F40AC0E5
:10090000E92FE51BED3028F79E3B10F0F1E411C014
:10091000503488F4F9EA88232AF09A95660F771FF5
:10092000881FDAF744232AF05A95220F331F441FF9
:10093000DAF79F1B5F1BFF931F930F93FF92EF92BA
:1009400079018A01BB27AB2F9B01AC0165D09701D0
:10095000A801BF937B018C01AA27BA2FB901CA0154
:100960005BD0AF919701A801EF90FF900F911F917D
:100970007DDD69DFB3D04F9140FF0895552747FDD6
:10098000509509C09B01AC0160E070E080E89FE3F6
:10099000E6C01DCFE6C070DFE8F39923D9F3940FCA
:1009A000511DBBF39150504094F059F0882332F020
:1009B000660F771F881F91505040C1F79E3F510529
:1009C00044F7880F911D9695879597F908955F3F95
:1009D000ACF0983E9CF0BB27869577956795B795C8
:1009E00008F4B1609395C1F7BB0F58F711F460FF9D
:1009F000E8CF6F5F7F4F8F4F9F4FE3CF58CF0AD025
:100A000022CF13DF28F018DF18F0952309F0DFCE8E
:100A1000E4CE4DCF29DFA8F39923D9F35523C9F3A9
:100A2000950F50E0551FAA27EE27FF27BB2700246C
:100A30000894679520F4E20FF31FB41F0A1E220FDB
:100A4000331F441FAA1F6695A9F7779530F4F30F5B
:100A5000B41F0A1E121E08F46395330F441FAA1F09
:100A6000221F769599F7879520F4B40F0A1E121E5F
:100A7000631F440FAA1F221F331F8695A9F7862FD5
:100A8000712D602D11249F5750408AF0E1F088238A
:100A90004AF0EE0FFF1FBB1F661F771F881F915084
:100AA0005040A9F79E3F510570F091CE00CF5F3FB7
:100AB000ECF3983EDCF3869577956795B795F795B7
:100AC000E7959F5FC1F7FE2B880F911D969587953F
:100AD00097F9089511F40EF480CE43C0CDDED0F323
:100AE0009923D9F3CEF39F57550B87FF48D00024A5
:100AF000A0E640EA900180585695979528F4805CCE
:100B0000660F771F881F20F026173707480730F435
:100B1000621B730B840B202931294A2BA69517944D
:100B20000794202531254A2758F7660F771F881F1D
:100B300020F026173707480730F4620B730B840B3D
:100B4000200D311D411DA09581F7B901842F9158C9
:100B5000880F9695879508959B01AC0150CF4ADD8B
:100B600072CE9F3F31F0915020F48795779567952D
:100B7000B795880F911D9695879597F9089591508F
:100B80005040660F771F881FD2F70895F894FFCF63
:100B9000B80180868C92989EA5AAB0B6BCC1C6CB7F
:100BA000D0D5DADEE2E6EAEDF0F3F5F8FAFBFDFE89
:100BB000FEFFFFFFFEFEFDFBFAF8F5F3F0EDEAE6BF
:100BC000E2DEDAD5D0CBC6C1BCB6B0AAA59E98925B
:100BD0008C868079736D67615A554F49433E39342D
:100BE0002F2A25211D1915120F0C0A0705040201D1
:100BF000010000000101020405070A0C0F1215197B
:100C00001D21252A2F34393E43494F555A61676DBE
:020C10007379F6
:00000001FF
