:100000000EC028C027C026C025C024C023C022C0DF
:1000100021C020C088C01EC01DC01CC01BC0112430
:100020001FBECFE5D2E0DEBFCDBF10E0A0E6B0E05E
:10003000EEE9F3E002C005900D92A03EB107D9F7BA
:1000400020E0A0EEB0E001C01D92AC3EB207E1F7A7
:10005000BED0A3C1D5CF87B1826287B9379A86B1A6
:10006000836086B9089539983898369A87EC90E07D
:100070000197F1F700C0000085B108953998389ACA
:10008000369A87EC90E00197F1F700C0000085B147
:100090000895399A3898369A87EC90E00197F1F7ED
:1000A00000C0000085B10895399A389A369A87ECD5
:1000B00090E00197F1F700C0000085B10895F89431
:1000C0001EBC80B78E7F80BFC1980895B99A80B753
:1000D000816080BF78940895F2DF19BE86E087BD05
:1000E00080B7806480BF80B7806280BF80B7816046
:1000F00080BFB99A8AB58B608ABD83B7816083BFA0
:1001000089B7806189BF8CE389BDE0CFE82FF0E03B
:10011000EE0FFF1FEE0FFF1FE052FF4F4083518392
:100120006283738308951F920F920FB60F9211246A
:100130002F933F934F935F936F937F938F939F93EF
:10014000AF93BF93CF93DF93EF93FF93C0EED0E0D5
:1001500088819981AA81BB81E8EEF0E0208131811C
:10016000820F931F9183808380819181A92FA6950F
:10017000B0E0A05ABF4F8C914C815D816E817F8130
:1001800022813381240F351F3383228322813381DF
:10019000E32FE695F0E0E05AFF4F9081890F992711
:1001A000991F969587958EBDFF91EF91DF91CF9125
:1001B000BF91AF919F918F917F916F915F914F917F
:1001C0003F912F910F900FBE0F901F901895CF93D6
:1001D000DF93CDB7DEB7E0970FB6F894DEBF0FBE62
:1001E000CDBFFE01BB9686E0DF011D928A95E9F73F
:1001F00088EB91E09A8389838AE292E09C838B83E7
:1002000044E952E05E834D832EEE31E038872F8340
:100210006BE472E07A87698724EE32E03C872B87B3
:100220009E878D87588B4F878FE393E09A8B898BBE
:100230007C8B6B8B3E8B2D8B60E773E0788F6F8BA5
:100240005A8F498F9C8F8B8F4CED53E05E8F4D8F73
:1002500038A32F8F7AA369A324E534E03CA32BA312
:100260009EA38DA358A74FA386E994E09AA789A7D8
:10027000C49AC39AC29A30DF28EBC22EDD24D394ED
:1002800001E037E0E32EF12CB49B28C080E0B39B63
:1002900027C010E096B392FB222720F92027282BB5
:1002A000122B01F50CDFF0E0E0E0AF0184E0440F39
:1002B000551F8A95E1F7052E000C660B770B80E041
:1002C00025DFA60194E0440F551F9A95E1F7052E0E
:1002D000000C660B770B81E019DFD6CF84E0D7CF17
:1002E00012E0D8CFF3DE212F110F330BC901019794
:1002F00066E070E01AD041E050E04C0F5D1F840FC3
:10030000951FDC01ED91FC91C9010196B7011ED04A
:1003100066E070E00AD021E030E02C0F3D1F820F34
:10032000931FDC01CD90DC90C0CF0024552704C082
:10033000080E591F880F991F009729F07695679529
:10034000B8F37105B9F7802D952F089597FB072E07
:1003500016F4009406D077FD08D00BD007FC05D02A
:100360003EF4909581959F4F0895709561957F4FCC
:100370000895AA1BBB1B51E107C0AA1FBB1FA617EC
:10038000B70710F0A61BB70B881F991F5A95A9F73E
:0E03900080959095BC01CD010895F894FFCFA3
:10039E0080868C92989EA5AAB0B6BCC1C6CBD0D58D
:1003AE00DADEE2E6EAEDF0F3F5F8FAFBFDFEFEFF2B
:1003BE00FFFFFEFEFDFBFAF8F5F3F0EDEAE6E2DEF6
:1003CE00DAD5D0CBC6C1BCB6B0AAA59E98928C8603
:1003DE008079736D67615A554F49433E39342F2AE0
:1003EE0025211D1915120F0C0A0705040201010023
:1003FE0000000101020405070A0C0F1215191D2138
:10040E00252A2F34393E43494F555A61676D73790A
:00000001FF
